:100000000C947F070C94A7070C94A7070C94A707E0
:100010000C94A7070C94A7070C94A7070C94A707A8
:100020000C94A7070C94A7070C94A7070C94170A25
:100030000C94A7070C94A7070C94A7070C94A70788
:100040000C94CD090C94A7070C94A7070C94A70750
:100050000C94A7070C94A7070C94A7070C94A70768
:100060000C94A7070C94A707661E6E1E771E801EB1
:10007000881E921E9A1EA31EAC1EB41E0101FF0311
:100080000101F70341626F757400506C617920289B
:10009000636C61737369632900506C617920286E09
:1000A0006577290080007C00000000002400270004
:1000B0002A0000000000250028002B0005008930E0
:1000C0000802380249786814000099008A00840008
:1000D0005830AAAAB000000002BFFFFFF0AEFBF04C
:1000E000000000057FFFFFF0BFCE8000000000AEE3
:1000F000FFFFF0F80080000000015FFFFFF0F80153
:10010000C000000000ABFFFFF0B000800000000066
:1001100057FFFFF07001400000000002AFFFF0F059
:1001200000800000000015FFFFF0D000000000007C
:100130000000ABFFF0E10000000000000157FFF0FD
:1001400075000000000000002AFFF0EB0000000036
:1001500000000017FFF03F000000000000000ABF91
:10016000F07E0000000000000005FFF00C00000021
:100170000000000002AFF04C00000000000000058D
:10018000FFF0140000000000000000BFF00C0000B1
:100190000000000000017FF054000000000000009B
:1001A00000AFF02C00000000000000017FF058407C
:1001B00000000000000000ABF06D400000000000F7
:1001C000000057F05AC0000000000000002AA02FD5
:1001D000C00000000000000055F01F80000000007B
:1001E0000000000AA0980000000000000000055078
:1001F000080000000000000000002098000000003F
:100200000000000000500800000000000000000096
:10021000000800000000000000000000380000009E
:10022000000000000000001080000000000000003E
:1002300000003A80000000000000000000B58000CF
:1002400000000000000000007F80000000000000AF
:100250000000007F00000000000000000000F80027
:100260000000000000000000005800000000000036
:1002700000000000B80000000000000000000018AE
:1002800000000000000000000000A80000000000C6
:100290000000000000580000000000000000000006
:1002A00028000000000000000000004800000000DE
:1002B0000000000000002800000000000000000016
:1002C00000FFFFFFFFFFFFFF07FFFFF00000000040
:1002D0000002AF7FFFFFF00000000000005FFFFFA3
:1002E000FFF0583002000000000000000000000293
:1002F00000000000000000000000020000000000FC
:1003000000000000000200000000000000000000EB
:1003100002000000000000000000000200000000D9
:10032000000000000000FF8000000000000000004E
:1003300000008000000000000000000000800000BD
:10034000000000000000000080000000000000002D
:100350000000FF800000000000000000000200001C
:10036000000000000000000002000000000000008B
:100370000000000200000000000000000000020079
:10038000000000000000000000020000000000006B
:100390000000000002000000000000000000000259
:1003A00000000000000000000000FF8000000000CE
:1003B00000000000000080000000000000000000BD
:1003C000008000000000000000000000800000002D
:1003D000000000000000FF8000000000000000009E
:1003E0000002000000000000000000000200000009
:1003F00000000000000000020000000000000000FB
:1004000000000200000000000000000000020000E8
:1004100000000000000000000200000000000000DA
:100420000000000200000000000000000000FF804B
:10043000000000000000000000008000000000003C
:10044000000000000080000000000000000000002C
:1004500080000000000000000000FF80000000009D
:10046000000000000002000000000000000000008A
:100470000200000000000000000000020000000078
:10048000000000000000020000000000000000006A
:100490000002000000000000000000000200000058
:1004A0000000000000000003FFFFFFFFFFFFFFFF51
:1004B000FFF00408000200004000100000081000D7
:1004C000020000400008000010100004000020009E
:1004D000080000202000040000200004000040204C
:1004E000000400002000040000804000080000100C
:1004F000000200005830000000000000BFFFFFFFB6
:10050000F00000000007857FFFFFFFF00000000003
:100510001FE02FFFFFFFF0000000003C115FFFFF16
:10052000FFF00000000038002FFFFFFFF000000088
:1005300000700057FFFFFFF00000000070000BFF8D
:10054000FFFFF000000000700157FFFFFFF0000008
:10055000000070000ABFFFFFF000000000300045FF
:100560007FFFFFF000000000380002AFFFFFF00047
:100570000000001C00155FFFFFF000000000078076
:10058000000BFFFFF00000004400000055FFFFF0EB
:100590000000000000000002BFFFF0000001551045
:1005A000003115FFFFF00000008800003000BFFFA1
:1005B000F000000555540060057FFFF0000002AA1E
:1005C000A00FE0002FFFF0000055FFD51DFD815F5B
:1005D000FFF000400BFFAA087FC00FFFF00140575B
:1005E000FFF540610057FFF000C02FFFFA806780E1
:1005F0002BFFF001C15FFFFF5062815FFFF00180C0
:10060000AFFFFFA0E1000BFFF000017FFFFFD4E090
:100610000057FFF000002FFFFFA0C0000AFFF0000E
:10062000017FFFFFF5C0015FF5700000BFFFFFE82D
:10063000C0000AAAB000057FFFFFF5C00457D050E4
:100640000002FFFFFFEBC0002A80200095FFFFFFA4
:10065000FDD1155F401000ABFFFFFFFBC000BA806B
:100660000001D7FFFF3FFF75557F401001FFFFFFDF
:10067000AFEEE22AFF800001FF93FF97CF7D5FFF7F
:1006800040100127913F2EAE7ABFFFA000012492B7
:100690007F974F7FFFFF5010012492BFAAAE7FFFCC
:1006A000FFE8300124925F154E7FFFFFF5500124D3
:1006B00092AAAAAC7FFFFFFFF00124905515467F58
:1006C000FFFFFFF0012492AAAAAC7FFFFFFFF00119
:1006D000249255154C7FFFFFFFF0012492AAAAAC8B
:1006E0007FFFFFFFF001FFFFFFFFFFFFFFFFFFF0B6
:1006F000000000000002AFFFFFFFF000000000005C
:100700000000000000005830004021000000000000
:1007100000000000A0420000000000000000009067
:100720004200000000000000000130020200000052
:10073000000000000029000200000000000000008E
:1007400088020400000000000000000A0404000009
:100750000000000000001204000000000000000083
:10076000006208080000000000000000000008000F
:100770000000000000000000200800000000000051
:1007800000004040100000000000000000A08000B9
:100790000000000000000001288020000000000090
:1007A0000000011400200000000000000000048090
:1007B000400000003EE0000000448040000000C116
:1007C000100000004803000000070088000000102F
:1007D0001C00000008808800000010400000000895
:1007E000040400000020800000000808040000004D
:1007F00041000000000808040000000100000000A3
:1008000004080800000010000000000B08080000A9
:1008100000A80000000010449400000148000000FF
:10082000001080420000000800000000108042001C
:100830000000080000000008408200000090000056
:1008400000000808020000012000000000044C84A1
:10085000000000200000000003210800000020002C
:100860000000000092300000004000000000007313
:10087000C0000000000000000000120000000000A6
:100880000000000000120000000000000000000056
:100890001200000000000000000000120000000034
:1008A00000000000000011000000000201004001F3
:1008B0000011000000000A018050014011000000FA
:1008C000002C030020024011000000000000000086
:1008D00000000000000000080002000040001000BE
:1008E000000010000200004000080000001000049A
:1008F0000000200008000000200004000020000488
:10090000000000200004000020000400000040005F
:1009100008000010000200000806FCCC8484CCFC17
:1009200008063030FCFC30300806003078783000A3
:100930000806000000000000180F1FFD003FA50082
:100940003FFF807E008066FE8042FE8042FE806621
:1009500000807E28807E0080FFFF80DE7C807FFF1D
:100960008039C70039C7000000001810006000007F
:1009700090001FF8002004004F9A004892004F9FFB
:100980000040008080C04081E0C081E0C080C04065
:10099000980C40E7F3C0241200180C001810000057
:1009A000003FFD803FFF803FD0803FFE803FFE80C4
:1009B0003FFE803FD0803FF8803FD0803FFF803FA8
:1009C000FC803FFF803FFF80000000000000181007
:1009D000000000000000000000000000000400070C
:1009E0000C000000000000000000000000000000FB
:1009F00000000000000000000000000000000000F7
:100A00001810000000000000000000000000003E80
:100A100000003E00003E0000000000280000000032
:100A2000003F00003C00000000000000000000004B
:100A30000000181000000000F0001FF8003FFC004C
:100A40007FFA0078F2007FFF007FFF807FFF807FCA
:100A5000FF807FFF807FFF807FFF801FFC001C1CCA
:100A600000000000050068013801000005003801A1
:100A700068010000080670D070E07060000807E0B0
:100A8000E0E040704070080870D878E07078282066
:100A90000808040E1F6E1428C8400808386C3CF083
:100AA0007860D010080870707028F020304808086E
:100AB0006058F860F8E0509000080970707020707D
:100AC000A8202050080506D63DFF34080520977F52
:100AD000970810086006581AF81F6006F81FE7E725
:100AE00053CA900900001009E01CE01CE01C4008FB
:100AF00060185FE840084008A0141753440016131C
:100B00007800161314001510200015201000540A48
:100B100003E181867F3E186D830F0F0E018386608F
:100B200033186DC3198F1803C38E6033186DE3300B
:100B3000CF1803C39E603630CDE360CF3006C79E2A
:100B40007E3E30CDB360CF300CC6F6603330D9B6C0
:100B500060CF33CFCCF66061B0DB1E60CF30D86C95
:100B6000E6C061B0DB1E618F19986CC6C063B19B93
:100B70000E330F0FB078C6FF7E1F1B061E0F401EE0
:100B8000E00000078E78E060E000000FEC0DF9F067
:100B9000E000001FF80F1F98FC00001818060E0C4C
:100BA000E3C000781004040DE23800EC070380076E
:100BB000E20981801FCFC1C1E20F110018D8E7F010
:100BC000E20EC10630603E78E20FC18F30403C3803
:100BD000E20F80D9E000181CE20F8010803000275F
:100BE000FA0F000000700001FE0F0000707000009E
:100BF000FFCE0060F0780000FFFA0040E061800165
:100C0000FFF8014078E7E001FFF803C00C8FF00B1C
:100C1000FFF903C0049FF80EFFFA87C807FEF81E0D
:100C2000FFFF878827FC7823FFFFCB3803EC700198
:100C3000E7FFF8D8032E6007E3FFF8C20126F47E31
:100C4000E0FFFF60833073E0E078FFFF861E000066
:100C5000E00007FF1C1C0000E00001F81E0E000071
:100C6000E00000000F060000E000000000000000AF
:100C7000466972654275696E6F2100450068010022
:100C800000F6E8DBCFC3B8AEA49B928A827B746E79
:100C900068625C57524E4945413E3A3734312E2CFA
:100CA00029272523210A0A153A49676E6F726500C4
:100CB0006D560A0A504C45415345205455524E201A
:100CC0004F464620004C4F572042415454455259FC
:100CD00021200003053F213F1208120A100A0E1CB2
:100CE0000E0C1E0C141A14161F161E131E1E1B1E8D
:100CF0001E1F1E3F213F3A2F3A173D173F213F1835
:100D00001F02040A041F0E04040E1F0A1F0A0E0EFF
:100D10001F04110E2E252E2F2A2E262929021F02EE
:100D2000081F08150E04040E150E15151B151B04BF
:100D30000604040C040000000017000300031F0A4F
:100D40001F16371A1904130A153A000300000E1172
:100D5000110E000A040A040E04003000040404000A
:100D600010001804031F111F121F101D1517111555
:100D70001F07041F17151D1F151D01011F1F151F1C
:100D800017151F000A00003200040A110A0A0A118E
:100D90000A040115020E11171E051E1F150A0E1159
:100DA0000A1F110E1F15111F05010E111D1F041F13
:100DB000111F1108100F1F041B1F10101F061F1EEC
:100DC000040F0E110E1F09060E112E1F051A121503
:100DD00009011F011F101F0F180F1F0C1F1B041BE1
:100DE000031C03191513001F11030418111F00021F
:100DF00001022020200001020C121E1F120C0C12F6
:100E0000120C121F0C1A14041E05242A1E1F021C89
:100E1000141D1020201D1F0814111F101E041E1E5B
:100E2000021C0C120C3E0A040C123E1E0402141684
:100E30000A020F120E101E0E100E1E081E120C12A9
:100E400026281E322A26041E21001F00211E04010E
:100E500002013F213F172B152010204C4F414445E4
:100E60005200172B16201314000A4E6F20534420F3
:100E700063617264206F720A6E6F204C4F4144456B
:100E8000522E4845580A0A153A45786974001D20C3
:100E9000466C617368696E670A20206C6F616465D7
:100EA000722E2E2E0A0A444F4E2754205455524E6D
:100EB000204F4646210000000000230026002900A4
:100EC00004040404040404040202020202020303F0
:100ED00003030303010204081020408001020408F8
:100EE0001020010204081020000000080002010088
:100EF000000304070000000000000000AC1F1124E4
:100F00001FBECFEFD8E0DEBFCDBF12E0A0E0B1E062
:100F1000E8E6F6E402C005900D92A832B107D9F7D1
:100F200024E0A8E2B2E001C01D92AD3EB207E1F7B5
:100F300017E0CFE7D7E004C02197FE010E941323FA
:100F4000CE37D107C9F70E94A7160C9432230C9410
:100F50000000CF92DF92EF92FF920F931F93CF93F7
:100F6000DF936C017A018B01C0E0D0E0CE15DF0584
:100F700089F0D8016D918D01D601ED91FC91019020
:100F8000F081E02DC6010995892B11F47E0102C084
:100F90002196ECCFC701DF91CF911F910F91FF9068
:100FA000EF90DF90CF900895089580E090E008954D
:100FB0000E942D23CF93DF9300D000D0CDB7DEB7B2
:100FC000611571058105910579F09B01AC0169837B
:100FD0003A834B835C830E94322129813A814B8181
:100FE0005C810E94562103C060E070E0CB010F904D
:100FF0000F900F900F90DF91CF910895DC01ED914C
:10100000FC910190F081E02D09946115710579F052
:10101000FB0101900020E9F73197AF01461B570B08
:10102000DC01ED91FC910280F381E02D099480E0D8
:1010300090E008954F925F926F927F92EF92FF92AD
:101040000F931F93CF93DF93CDB7DEB7A1970FB662
:10105000F894DEBF0FBECDBF7C01FA01CB0119A20F
:10106000223008F42AE08E010F5D1F4F422E512CD2
:10107000612C712CBF01A30192010E948821F9010A
:10108000CA01015011096A3014F4605D01C0695C45
:10109000D8016C93232B242B252B61F7B801C701B2
:1010A0000E940508A1960FB6F894DEBF0FBECDBF13
:1010B000DF91CF911F910F91FF90EF907F906F90F4
:1010C0005F904F900895833081F028F4813099F03B
:1010D0008230A1F008958730A9F08830B9F08430CB
:1010E000D1F4809180008F7D03C0809180008F7744
:1010F00080938000089584B58F7702C084B58F7D7A
:1011000084BD08958091B0008F7703C08091B000B6
:101110008F7D8093B00008951F93CF93DF93282F86
:1011200030E0F901E851F14F8491F901EC52F14FAF
:10113000D491F901E054F14FC491CC23C9F0162F9A
:1011400081110E946308EC2FF0E0EE0FFF1FEE54B8
:10115000FF4FA591B4918FB7F894111105C09C91E0
:10116000ED2FE095E92302C0EC91ED2BEC938FBFBE
:10117000DF91CF911F910895CF93DF9390E0FC0111
:10118000EC52F14F2491FC01E054F14F84918823FB
:1011900061F190E0880F991FFC01E855FF4FC59160
:1011A000D491FC01EE54FF4FA591B491611109C097
:1011B0009FB7F8948881209582238883EC912E2311
:1011C0000BC0623061F49FB7F8943881822F80950C
:1011D00083238883EC912E2B2C939FBF06C08FB75F
:1011E000F894E8812E2B28838FBFDF91CF9108954B
:1011F0001F93CF93DF93182FEB0161E00E94BC088F
:10120000209711F460E004C0CF3FD10539F461E0CC
:10121000812FDF91CF911F910C948C08E12FF0E08A
:10122000E851F14FE491E330F9F048F4E130B9F0DE
:10123000E230A1F584B5806284BDC8BD34C0E7301A
:10124000E9F0E83019F1E43049F5809180008062DE
:1012500080938000D0938B00C0938A0024C084B513
:10126000806884BDC7BD1FC0809180008068809366
:101270008000D0938900C093880015C08091B00091
:1012800080688093B000C093B3000DC08091B0001F
:1012900080628093B000C093B40005C0C038D1050F
:1012A0000CF0B5CFAFCFDF91CF911F9108958E3065
:1012B00008F08E508770806480937C0080917A0063
:1012C000806480937A0080917A0086FDFCCF8091C3
:1012D00078002091790090E0922B08953FB7F89420
:1012E0008091550290915602A0915702B0915802F8
:1012F00026B5A89B05C02F3F19F00196A11DB11D71
:101300003FBFBA2FA92F982F8827820F911DA11DAB
:10131000B11DBC01CD0142E0660F771F881F991FE8
:101320004A95D1F708958F929F92AF92BF92CF9234
:10133000DF92EF92FF926B017C010E946E094B01DC
:101340005C01C114D104E104F104F1F00E946E09C2
:10135000DC01CB0188199909AA09BB09883E934091
:10136000A105B10570F321E0C21AD108E108F10826
:1013700088EE880E83E0981EA11CB11CC114D10414
:10138000E104F10419F7DDCFFF90EF90DF90CF90EB
:10139000BF90AF909F908F9008951F920F920FB6BD
:1013A0000F9211242F933F938F939F93AF93BF93EB
:1013B00080915E0290915F02A0916002B091610203
:1013C0003091540223E0230F2D3720F40196A11D04
:1013D000B11D05C026E8230F0296A11DB11D209363
:1013E000540280935E0290935F02A0936002B093D8
:1013F00061028091550290915602A0915702B091DE
:1014000058020196A11DB11D80935502909356027A
:10141000A0935702B0935802BF91AF919F918F91C3
:101420003F912F910F900FBE0F901F9018951F9214
:101430000F920FB60F9211242F936F937F938F9378
:101440009F9360915B02662359F1809153028F5FF5
:101450008093530290915C02891710F120915902F8
:1014600081E02827209359021092530280915D0257
:10147000882369F08091000193E4899F802D1124D5
:10148000895B809300010E94F32290935A022223E9
:1014900029F080915A028093B40002C080E0FBCF13
:1014A0009F918F917F916F912F910F900FBE0F9011
:1014B0001F901895FC0161110DC0178A158A14A29E
:1014C00013A2108E10925A0210925B0210925902CF
:1014D0001092B4000895EF92FF920F931F93CF9351
:1014E000DF931F92CDB7DEB77C018B01411105C0A0
:1014F00060E049830E945A0A498150E0FA01EE0FE8
:10150000FF1FEE0DFF1D16870587DA011996AA0F3A
:10151000BB1FAE0DBF1D1D921C92F701E40FF51FFE
:1015200081E0818389E0868B118E138E158E0F905A
:10153000DF91CF911F910F91FF90EF90089540E0C0
:101540006BE77CE00C946B0A4F925F926F927F92F4
:101550008F929F92AF92BF92CF92DF92EF92FF92C3
:101560000F931F93CF93DF93F901C4903196549159
:10157000EC0108A164350CF018C10C2C000CDD083E
:10158000A62F062E000CBB0B7D01EC0CFD1C1E14BF
:101590001F040CF00AC140330CF007C1A52E842EA5
:1015A000042E000C9908F401E50FF11D57FDFA9582
:1015B0001E161F060CF0F9C02E5F3F4FE60127965E
:1015C000D7FD279673E0D595C7957A95E1F747FF44
:1015D0000AC0A52EA40EC89DA001C99D500D1124BE
:1015E000241B350B40E0EA2D0A2C000CFF0BE40F06
:1015F000F11D47FDFA95F1971CF050E3A52EA41AB2
:1016000067FD60E0F701E535F10514F0E4E5F0E091
:101610007E2FFC01D484D426862F062E000C990B35
:10162000FC01EA1BFB0BDF017F01F7E0EF22FF2447
:10163000E0E8F0E002C0F595E795EA94E2F71E2FA6
:10164000B7FD179653E0B595A7955A95E1F72A0F80
:101650003B1FE42FE77051E001C0550FEA95EAF710
:10166000459545954595B4E54B02800D911D112496
:101670008E599D4FC12C0A2C000CBB0899249394C1
:101680002E015524EC2DF0E0EA15FB050CF08DC081
:10169000F90144910130E1F47C01A12F862E881AD2
:1016A000B82DBE0DB71708F077C0B42FBA2321F0BC
:1016B000E701B881B52BB883B0E0B595A795109731
:1016C00019F431964491A0E8DFEFED1AFD0AE8CF56
:1016D00001111FC0752E70947C01A12FF901862E77
:1016E000881AB82DBE0DB71708F056C0B42FBA230C
:1016F00021F0E701B881B721B883B0E0B595A7958F
:10170000109719F431964491A0E8DFEFED1AFD0A25
:10171000E8CF033031F07C01A12FF901862E881A21
:1017200037C0752E7094862E7C01A12FF901871683
:10173000D8F4B42FBA2359F0E701B881682C6D248E
:1017400060FE02C0B52B02C0B721E701B883B0E04C
:10175000B595A795109719F431964491A0E8839414
:10176000DFEFED1AFD0AE3CFD92416C0B42FBA2358
:1017700021F0E701B881B527B883B0E0B595A7950A
:10178000109719F431964491A0E8DFEFED1AFD0AA5
:10179000B82DBE0DB71750F3550F19F48C5A9F4F43
:1017A00051E0C394240D351D6DCFDF91CF911F9172
:1017B0000F91FF90EF90DF90CF90BF90AF909F90F0
:1017C0008F907F906F905F904F900895FC016435EB
:1017D00008F053C0403308F050C090A1742F7595A5
:1017E00075957595262F062E000C330B542F5770C8
:1017F0009230A1F4F901EE59FD4F84E57802E00D35
:10180000F11D1124808190E0052E02C095958795E9
:101810000A94E2F78095982F91700AC0933041F4B2
:1018200084858170462740954170841303C014C09D
:10183000911112C084E57802200D311D1124F901A7
:10184000EE59FD4F81E090E001C0880F5A95EAF70C
:1018500080959081892310C084E57802200D311D88
:101860001124F901EE59FD4F81E090E001C0880F8D
:101870005A95EAF79081892B80830895DF92EF9241
:10188000FF920F931F93CF93DF931F92CDB7DEB7D5
:101890008C01D62EF42EE12CE21654F46E2D6D0D33
:1018A0004F2DC80129830E94E60BE3942981F4CFD0
:1018B0000F90DF91CF911F910F91FF90EF90DF90EC
:1018C0000895DF92EF92FF920F931F93CF93DF93D0
:1018D0007C01D62FD22EC42F002E000C110B040F2A
:1018E000111D47FD1A954C2F0C2E000C550B40175F
:1018F000510744F42D2D4C2F6D2FC7010E943E0C33
:10190000CF5FF1CFDF91CF911F910F91FF90EF90BB
:10191000DF9008956F927F928F929F92AF92BF92C5
:10192000CF92DF92EF92FF920F931F93CF93DF93AB
:10193000EC016A3019F42D819885A1C06D3009F44D
:10194000A4C01885BA84D98488A083E58D150CF4C9
:101950007FC08FE28B150CF47BC08C8190E00197E7
:10196000189F9001199F300D1124C9018D0D911DF3
:10197000D7FC9A95181619060CF06AC08D81819FC4
:10198000C00111248B0D911DB7FC9A9518161906EC
:101990000CF05EC09D2CCD2CE62EF12CEC2DED191B
:1019A0000E2E000CFF0B8C8190E0E817F9070CF06D
:1019B0004EC00197E817F90779F0E89E9001E99E7B
:1019C000300DF89E300D1124E20FF31F8E8D9F8D88
:1019D000E80FF91F749001C0712C6B2CAB2C2A2DD1
:1019E0002B19022E000C330B8D8190E0281739073C
:1019F0005CF570FE10C0113031F44A2D6C2DCE0113
:101A00000E94E60B1DC0012F212F462D692DCE010E
:101A10000E94610C15C089A198A1891789F088A33B
:101A2000113031F44A2D6C2DCE010E94E60B07C017
:101A3000012F212F462D692DCE010E94610C88A215
:101A40007694A394610ECBCFC394910EA7CF88A2B6
:101A500028853C818985329F800D112489879F814B
:101A6000992399F0082E000C990B44E550E0239F30
:101A7000401951091124481759073CF49D818A8562
:101A8000299F800D11248A87198681E090E0DF91DB
:101A9000CF911F910F91FF90EF90DF90CF90BF906B
:101AA000AF909F908F907F906F9008958F929F92AC
:101AB000AF92BF92CF92DF92EF92FF92C0907C04E0
:101AC000D0907D04C094D094E12CF12C0E946E093A
:101AD0004B015C010E946E09A5019401209530958F
:101AE0004095509560957095809590950E94E32261
:101AF0009B01AC01C701B6010E94E3224B015C01CE
:101B000080916304909164046C01E12CF12C0E949B
:101B10006E09C60ED71EE81EF91EC701B601680D74
:101B2000791D8A1D9B1D611571058105910511F0B7
:101B30000E9437211092490283E090E0909329029D
:101B4000809328021092450210924602109247029A
:101B50001092480281E090E0909343028093420209
:101B600082E090E090932D0280932C021092440228
:101B7000EEE2F2E01192119282E0E234F807D1F73E
:101B800088E090E00E94B71FFC011182108213824E
:101B9000128283E090E09583848316821782F0930B
:101BA0002F02E0932E0281E090E090932B0280932D
:101BB0002A02FF90EF90DF90CF90BF90AF909F9060
:101BC0008F900895CF92DF92EF92FF920F931F9321
:101BD000CF93DF938091D204882309F4C1C081E0C0
:101BE0008093B8041092B7041092B60410927A044D
:101BF0008093D0048093D104C0E7DCE01CE00E9415
:101C0000C30E8823E1F3FE018491882319F000912B
:101C1000B50401C000E02EE03BE040E060E080EB76
:101C200094E00E94A40A4CE0400F2EE73BE060E005
:101C300080EB94E00E94A40A1092B9041093BA04B5
:101C400080E79CE00E945A148091B404982F990F69
:101C5000890F81958D5A8093B9048091B504982F8E
:101C6000990F890F8195835D8093BA048091D30485
:101C700084FF03C08AE09BE002C086E09BE00E94F4
:101C80007B148091B404982F990F890F81958D5AF8
:101C90008093B9048091BA048F5F8093BA048091D5
:101CA0008C04882319F082E09BE002C08EEF9AE05A
:101CB0000E947B148091B404982F990F890F81950D
:101CC0008D5A8093B9048091BA048F5F8093BA04CF
:101CD0008AEF9AE00E947B14809178048130B1F4FD
:101CE00080918C048F5F60918D0487FD09C0082E60
:101CF000000C990B70E06F5F7F4F0E94FF22682FEE
:101D000060938C0487E894E00E949F0A8091770496
:101D10008130A9F08091D204482F50E060E070E05B
:101D2000C090D304D090D404E090D504F090D604B1
:101D3000C416D506E606F706F0F08F3FE1F08FEF08
:101D40008093D20460E087E894E00E945A0A1092DF
:101D5000880440E06CE67AE087E894E00E946B0A31
:101D600010927A04DF91CF911F910F91FF90EF9025
:101D7000DF90CF90089580917904813009F03FCFB2
:101D80000E948B143CCF4F925F926F927F928F9202
:101D90009F92AF92BF92CF92DF92EF92FF920F93FA
:101DA0001F93CF93DF9300D000D0CDB7DEB7409123
:101DB000E2045091E3046091E4047091E5042FB7CC
:101DC000F89480915E0290915F02A0916002B091C0
:101DD00061022FBF481B590B6A0B7B0B8091E104FA
:101DE00090E0A0E0B0E0C090DD04D090DE04E09090
:101DF000DF04F090E00484179507A607B70730F4D6
:101E0000C114D104E104F10409F0F8C2CD28CE28B0
:101E1000CF2809F0F1C28091790481508E3F18F5E6
:101E200080917804813021F580918C048F5F6091DE
:101E30008D0487FD09C0082E000C990B70E06F5FC0
:101E40007F4F0E94FF22682F60938C0482E69EE001
:101E50009093E7048093E60488E48093E80487E89D
:101E600094E00E949F0A8091790481508E3F70F423
:101E700080917704813009F06DC385E59EE09093F1
:101E8000E7048093E60488E48093E80480E00E94FD
:101E9000C01480918804882309F4ADC080919C040B
:101EA0008111A9C08091940490919504E0919904C6
:101EB000F0919A04EE0FFF1FE80FF91F459154911E
:101EC0004115510501F520919804222331F010921B
:101ED0009A0410929904FC0114C010928804809115
:101EE0008704882341F080E00E94C014E0919904A7
:101EF000F0919A042FC060E087E894E00E945A0AAB
:101F00007AC0459154919A01369527953695279533
:101F100040FF51C0CA01B6E096958795BA95E1F7A2
:101F20008F71952F96959695969590512F7022309A
:101F300071F1F8F4211117C08B3008F08AE080931A
:101F40009D04E0919904F0919A043196F0939A04DB
:101F5000E0939904EE0FFF1F8091940490919504F3
:101F6000E80FF91FCECF213061F760E00E94011524
:101F7000E8CF2330B1F0243021F720918B04829FE9
:101F8000802D11248093A4049093A504DACF20918E
:101F90008B04829F802D11248093A0049093A10430
:101FA000D0CF20918B04829F802D11248093A20496
:101FB0009093A304C6CF2F7320939B0480918B042E
:101FC000859F802D112480939C041092AC04109264
:101FD000AB041092AA0481E080939E04809359027E
:101FE00010929F048091990490919A040196909385
:101FF0009A048093990480919E04882309F4F3C085
:1020000080919C04811106C060E087E894E00E9402
:102010005A0AE9C0815080939C048091AC048111DC
:1020200048C02091AA043091AB042F5F3F4FC901F3
:10203000880F991FE091A604F091A704E80FF91FFB
:1020400065917491862F87708093AD04AB0163E036
:10205000569547956A95E1F7CA0196958795972F0A
:10206000969596959093AE048F7390918B04899F6B
:10207000802D11248093AC04417040935D02309315
:10208000AB042093AA048091A80490E02817390794
:1020900080F02091A904222339F0821B91099093AA
:1020A000AB048093AA0405C060E087E894E00E9436
:1020B0005A0A8091AC0481508093AC0480919F04B3
:1020C00021E0280F20939F0440919B043091AE049F
:1020D000340F80919304380F309389046091A204E7
:1020E000662371F070E0822F022E000C990B0E9483
:1020F000FF228091A304869F300D11243093890420
:102100008091890490E0849664E270E00E94FF224E
:102110008093890430919D0430938A046091A004D7
:10212000662381F0062E000C770B822F022E000C06
:10213000990B0E94FF228091A104869F300D1124EB
:1021400030938A046091A4046623A1F0822F220FA9
:10215000990B70E00E94FF22CB0162E070E00E94C8
:10216000FF222091A50490918A04289F900D1124AC
:1021700090938A0480918A044F3341F08A300CF0A6
:1021800089E087FD80E080938A0402C010928A046F
:10219000F894E0918904F0E0EF57F34FE491E09375
:1021A0005C0230918A042091AF0432039001112423
:1021B0004091AD044203C001439F900D1124009053
:1021C0008C0402C0880F991F0A94E2F797FF02C09F
:1021D00081589F4F880F892F881F990B80935B022E
:1021E00080935A0278948091E804882309F450C0BF
:1021F0008C3020F49CE0D92ED81A01C0D12CEE24CA
:10220000E394E092B8041092D0041092D10410919B
:10221000B5043DE2F32ECF2CC11ACD0C03E0010F23
:102220002EE44C2D63E080EB94E00E94610C14508E
:1022300003E00C0D212F41E0602F80E50E94761510
:10224000212F42E0602F83E00E947615E092D004B7
:10225000E092D1048091B50463E0680FF81A8F2DE5
:102260008D0D0E943C1584E08093B9048091B504E3
:10227000D81A8D2D815D8093BA048091E6049091E7
:10228000E7040E945A148091E80481508093E80486
:1022900080917E0490917F04892B09F485C011E020
:1022A0001093D0041092D1049091B40485E5891B59
:1022B0008093B9041092BA0460917B04613009F4F0
:1022C00054C030F080917A04653008F066C061C077
:1022D00060E087E894E00E945A0A10928804109304
:1022E000B804E3EDFCE0E491EF5FE093B404E4EDC7
:1022F000FCE0E491EF5FE093B50485ED9CE0909302
:10230000CF048093CE0410927F0410927E0410922A
:10231000B60418EA0E94C30E8823E1F385EC9CE022
:102320000E945A1440917C0450917D0460E070E05A
:102330002AE080EB94E00E941A0880EB9CE00E9467
:102340005A14412F42954F7050E060E070E080EBEE
:1023500094E00E94751385EA9CE00E945A148091D3
:102360007704813009F0FCC01FC08091D3049091A4
:10237000D404A091D504B091D6048F709927AA27D0
:10238000BB270897A105B10510F467E009C068E70D
:1023900007C0882349F06B5F03C0882329F06FE2F0
:1023A00080EB94E00E94FE070E941A148091B6040C
:1023B00081110EC088EF91E0E2E6F2E0DF019C01BE
:1023C0001D9221503040E1F71092B9041092BA04E6
:1023D0000E946E096093DD047093DE048093DF0435
:1023E0009093E0042091D9043091DA04621B730BBE
:1023F0007093D8046093D70480E0CCC02FB7F894D2
:1024000080915E0290915F02A0916002B0916102A2
:102410002FBF2091E104820F911DA11DB11D80935A
:10242000E2049093E304A093E404B093E504809164
:10243000D3049091D404A091D504B091D604019610
:10244000A11DB11D8093D3049093D404A093D5040F
:10245000B093D6041092DD041092DE041092DF04D3
:102460001092E0040E946E096093D9047093DA041C
:102470008093DB049093DC04809163049091640466
:102480002FE0289F8001299F100D112485E10E94D3
:102490005709800F911F24E0969587952A95E1F7BB
:1024A000909364048093630420916204222309F4CE
:1024B0004BC060916604262F30E040E050E0298355
:1024C0003A834B835C83C0906704D12CE12CF12CC0
:1024D00040916A0450916B044A01A12CB12C2091C7
:1024E0006804309169042901612C712C82179307CB
:1024F00028F09C014817590708F49A01C901A0E087
:10250000B0E09C01AD0124193509460957096981DC
:102510007A818B819C816C197D098E099F090E94AB
:10252000E322A501940124193509460957090E949F
:102530005621C20ED31EE41EF51EC09265046C2DFA
:1025400070E085E00E94F8080E94A7130E94D11550
:1025500081E020C0893209F099CC0E948B1496CC7E
:10256000115009F0D7CE60E070E085E00E94F808D5
:1025700083B7817F846083BF83B7816083BF83B764
:10258000816083BF889583B78E7F83BF83B78E7F3B
:1025900083BFC0CE0F900F900F900F90DF91CF911F
:1025A0001F910F91FF90EF90DF90CF90BF90AF9071
:1025B0009F908F907F906F905F904F900895AF9213
:1025C000BF92CF92DF92EF92FF920F931F93CF9320
:1025D000DF93182F062FC1E0D3E08AEFD82E9EEFAD
:1025E000E92E842F8470C82E842F8270B82E842FF9
:1025F0008870A82E4170F42E8C2F880F8F5FE80E04
:10260000CC2081F04D2F400F6C2F610F80EB94E0B8
:102610000E94E60B4C2F400F6D2F610F80EB94E072
:102620000E94E60BBB2081F0402F4D1B6C2F610FE9
:1026300080EB94E00E94E60B402F4C1B6D2F610F46
:1026400080EB94E00E94E60BAA2081F04C2F400F13
:10265000612F6D1B80EB94E00E94E60B4D2F400F25
:10266000612F6C1B80EB94E00E94E60BFF2081F051
:10267000402F4C1B612F6D1B80EB94E00E94E60BFA
:10268000402F4D1B612F6C1B80EB94E00E94E60BEA
:10269000CD1744F4E7FC04C0D150D394D394ED0C8F
:1026A000CF5FAACFDF91CF911F910F91FF90EF9055
:1026B000DF90CF90BF90AF9008950F931F93CF936B
:1026C000DF93182F062FD42FC0E0CD174CF44C2FDA
:1026D000400F612F80EB94E00E94E60BCF5FF5CFB7
:1026E000DF91CF911F910F910895CF92DF92EF92DA
:1026F000FF920F931F93CF93DF9377FF1DC06A0163
:102700007B01EC016DE20E94FE078C0144275527F6
:10271000BA014C195D096E097F092AE0CE010E94B9
:102720001A08800F911FDF91CF911F910F91FF9099
:10273000EF90DF90CF9008952AE0DF91CF911F9125
:102740000F91FF90EF90DF90CF900C941A08CF92EA
:10275000DF92EF92FF920F931F93CF93DF93CCE61C
:10276000D4E003E714E0FF24FA9497E0E92EE00EAA
:1027700062E088810E94BC08288130E0F901E851BC
:10278000F14F8491F901EC52F14FC490F901E054FA
:10279000F14FD490DD2071F081110E946308ED2D7E
:1027A000F0E0EE0FFF1FEA54F14FA591B491EC91C8
:1027B000EC21B1F4F80180818F5F808360E0888133
:1027C0000E94BC0821960F5F1F4FE012D1CFDF910E
:1027D000CF911F910F91FF90EF90DF90CF900895D0
:1027E000F8018081882371F3F8018F3F11F4108282
:1027F000E5CFF082E3CFCF93C82FF89460E08091CB
:10280000BF040E948C088091C00418161CF460E07C
:102810000E948C08CEBD00000DB407FEFDCF8EB522
:102820008091C00418161CF461E00E948C08789412
:10283000CF9108950F931F93CF938091BC048F5F26
:102840008093BC0402E612E0C0E08C2F80640E94FA
:10285000FB1380E80E94FB1361E08091BF040E949B
:102860008C088091C00418161CF460E00E948C084B
:1028700080E090E0F801E80FF91F20812EBD0000F4
:102880000DB407FEFDCF2EB501968435910591F765
:102890008091C00418161CF461E00E948C08CF5F80
:1028A0000C5A1F4FC63089F680E4CF911F910F91CB
:1028B0000C94FB130F931F93CF93DF938C01C0E015
:1028C000D0E0F801EC0FFD1F6491662371F0E091F8
:1028D000B004F091B1040190F081E02D80EB94E020
:1028E0000995892B11F02196ECCFCE01DF91CF9184
:1028F0001F910F910895CF93DF930E945A14EC011A
:102900006DE172E080EB94E00E9405088C0F9D1F42
:10291000DF91CF91089588EF91E0E2E6F2E0DF01E8
:102920009C011D9221503040E1F71092B9041092A1
:10293000BA048EE89EE00E945A140E941A148CB5C4
:1029400083608CBD8DB58E7F8DBD80E292E0EEEF11
:10295000FFE309951092B60489E69EE00E947B147D
:102960000E941A140E94A71380917704813039F0D5
:1029700062E370E080E090E00E949309F3CF089555
:10298000CF93DF93482F50E0EA01CE59DB4F9DA152
:102990009923A1F19EA1911131C09EA5FA01EE0FDC
:1029A000FF1FE759FB4F35A126A1E32FF22FE90FB7
:1029B000F11DE90FF11D259134912F3F9FEF39074C
:1029C00011F41DA21BC039AB440F551FFA01E45985
:1029D000FB4F3327220F331F05A0F6A1E02DE20F96
:1029E000F31F65917491811105C040E087E894E080
:1029F0000E946B0A29968DA18F5F8DA3DF91CF91E5
:102A0000089570E0DB01AA0FBB1FAE59BB4FD496EF
:102A10002C91D497D5969C91D597E22FF92FE80F5A
:102A2000F11DE80FF11D259134915F9696963C9328
:102A30002E939597F9018591949190918B04989F8D
:102A4000802D11246E597B4FFB01B19685A3F901AE
:102A5000A591B4914B2F50E0E82FF0E04E175F079F
:102A600020F4F90125913491832FFB01B296899FBF
:102A7000802D112485A308951F93CF93DF93C82F32
:102A8000162F2EE4482F63E080EB94E00E943E0C6A
:102A9000DC2FD10F4FEF4D0F2EE463E080EB94E07D
:102AA0000E943E0C1650CD5F412F6C2F80E00E949B
:102AB0005D13412F6C2F83E50E945D1341E06C2F65
:102AC00083E00E94DF1242E06C2F80E50E94DF125B
:102AD000D45044E06D2F80E50E94DF1248E06D2F56
:102AE00083E0DF91CF911F910C94DF129F92AF9200
:102AF000BF92CF92DF92EF92FF920F931F93CF93EB
:102B0000DF93F82EE62EB22E03E0020FD0E0C3E0F2
:102B10008AEFC82E1EEF842F8170982EAA24A394CA
:102B2000A20E4270D42EDF5F802F8B19180F9920D0
:102B300081F04C2F440F4A0D6E2D6C1B8D2F8F0D85
:102B40000E945D13402F6E2D6D1B8C2F8F0D0E94E8
:102B50005D13DD2081F04C2F440F4A0D6E2D6C1B50
:102B60008F2D8D1B0E945D13402F6E2D6D1B8F2DA1
:102B70008C1B0E945D13DC1744F417FD04C0C15088
:102B8000C394C3941C0D0E5FCECFDF91CF911F91E4
:102B90000F91FF90EF90DF90CF90BF90AF909F90FC
:102BA000089580917E0490917F04892BB1F18091EA
:102BB00086048F7169F584E10E945709BC01990F61
:102BC000880B990B0E94EA2126EE3FE34EEC50E47D
:102BD0000E944E220E94B9219B0170937D04609354
:102BE0007C04672B91F084E080937B04EEE7F4E0B3
:102BF00080E0419151912417350718F480937B04AC
:102C000008958F5F8430A9F703C08FEF80937B0412
:102C1000809186048F5F8093860408952F923F925F
:102C20004F925F926F927F928F929F92AF92BF92DC
:102C3000CF92DF92EF92FF920F931F93CF93DF9388
:102C400000D01F92CDB7DEB7362E6A01FA0154903C
:102C50003196E491A52CB12C7501F7E0EF0EF11C33
:102C600093E0F594E7949A95E1F720E030E8832E1D
:102C7000912C0E2F10E08150580E822F022E000C46
:102C8000990B8A159B050CF047C0922F27FF02C0B5
:102C900097E0920F959595959595822F877887FF68
:102CA00003C08150886F8F5F340102C075946794B0
:102CB0008A95E2F7412C892F990F990BAC014E5F51
:102CC0005F4F5B834A83252C221A842D042C000C31
:102CD000990B80179107F4F48E9DF0018F9DF00DF4
:102CE0009E9DF00D11248A819B81E80FF91FEC0D48
:102CF000FD1DE491F0E0E621F721EF2B49F0442D92
:102D0000430D622D80EB94E029830E94E60B29811C
:102D10004394DBCF2F5FB1CF0F900F900F90DF91D7
:102D2000CF911F910F91FF90EF90DF90CF90BF90C8
:102D3000AF909F908F907F906F905F904F903F905B
:102D40002F900895BC0180EB94E00C940508CF937C
:102D5000DF9300D000D000D0CDB7DEB7789484B533
:102D6000826084BD84B5816084BD85B5826085BD87
:102D700085B5816085BD80916E00816080936E0015
:102D80001092810080918100826080938100809107
:102D900081008160809381008091800081608093B8
:102DA00080008091B10084608093B1008091B00078
:102DB00081608093B00080917A00846080937A0073
:102DC00080917A00826080937A0080917A0081609D
:102DD00080937A0080917A00806880937A001092C4
:102DE000C10082E38093E10481E090E0A0E0B0E0E4
:102DF0008093DD049093DE04A093DF04B093E0049D
:102E00008FEF8093D204E0E8F7E7259134912130E9
:102E1000304C09F049C0E6E9F7E7E491E093BB04E0
:102E2000E7E9F7E7E491E0936604E8E9F7E7E4917E
:102E3000E0936704E9E9F7E7859194919093690439
:102E400080936804EBE9F7E78591949190936B0484
:102E500080936A0488E080938D04EEE9F7E7E491BB
:102E6000E0938C04EFE9F7E7E491E093D204E0EA21
:102E7000F7E78591949190937F0480937E04E2EA32
:102E8000F7E7859194919093810480938004E4EA1C
:102E9000F7E7859194919093830480938204E6EA06
:102EA000F7E7859194912CC09CE39093BB0410921A
:102EB00066048093670480E293E0909369048093B2
:102EC000680484ED93E090936B0480936A0488E037
:102ED00080938D0480938C048CEA9DE090937F0412
:102EE00080937E048EED9DE0909381048093800416
:102EF00084E79EE090938304809382048CE39FE0B8
:102F0000909385048093840411E0109362046FEF22
:102F100070E085E00E94F80888E080936C0489E006
:102F200080936D0487E080936E0486E080936F0445
:102F300004E00093700482E08093710481E1809347
:102F400072040E94A7138CE39FE090937D0480930A
:102F50007C0400937B04109386048BE08093BE0472
:102F60008DE08093BD0480E18093BF048EE0809368
:102F7000C1048FE08093C0041093B8041093D00470
:102F80001092D1041093B704E3EDFCE0E491EF5FFD
:102F9000E093B404E4EDFCE0E491EF5FE093B5046A
:102FA00085ED9CE09093CF048093CE041FB7F894F6
:102FB00080914A02811127C0EAECFEE08491EEED97
:102FC000FEE09491E82FF0E0EE0FFF1FE855FF4F71
:102FD000A591B491EC91E92321F461E08AE00E948B
:102FE0008C0861E08AE00E94BC088CB580618CBDD1
:102FF0008CB580648CBD61E08DE00E94BC0861E00E
:103000008BE00E94BC0880914A028F5F80934A0245
:103010001FBF8CB58F7D8CBD8CB58C7F81608CBDC6
:103020008DB581608DBD8CB58C608CBD61E080916B
:10303000BE040E94BC0861E08091BD040E94BC08EF
:1030400061E08091BF040E94BC088091C104181601
:103050001CF461E00E94BC088091C00418161CF4A6
:1030600061E00E94BC088091C104181674F460E00D
:103070000E948C086AE070E080E090E00E94930972
:1030800061E08091C1040E948C088091BD04082EEB
:10309000000C990BFC01E054F14FE491F0E0EE0FCD
:1030A000FF1FEE54FF4F259134913093C5042093B8
:1030B000C404FC01EC52F14FE491E093CB04809105
:1030C000BE04082E000C990BFC01E054F14FE49172
:1030D000F0E0EE0FFF1FEE54FF4F25913491309337
:1030E000C3042093C204FC01EC52F14FE491E0933D
:1030F000CA048091C004082E000C990BFC01E05416
:10310000F14FE491F0E0EE0FFF1FEE54FF4F2591D9
:1031100034913093C7042093C604FC01EC52F14F64
:10312000E491E093CC048091BF04082E000C990B2D
:10313000FC01E054F14FE491F0E0EE0FFF1FEE547C
:10314000FF4F259134913093C9042093C804FC01AA
:10315000EC52F14FE491E093CD0481E20E94FB1325
:1031600084E10E94FB138091BB0487FF03C08FE7BB
:103170008093BB048091BB0480680E94FB1380E2B3
:103180000E94FB138CE00E94FB130E941A1481E042
:1031900080938B0484E08093AF0484EA90E0909362
:1031A00097048093960460E080E00E94011561E03E
:1031B00070E083E00E94F8088091B100887F816010
:1031C0008093B100F89410928000109281001092C8
:1031D00085001092840088E191E0909389008093AB
:1031E00088008091810088608093810080918100B7
:1031F00081608093810080916F00826080936F0076
:1032000078940E94D11580917804813019F410923D
:103210008C040BC080917B048823C9F340E06CEBE5
:1032200070E087E894E00E946B0A0E94E20D0E9421
:10323000560D0FE412E0E12CF12CC7010E94402151
:10324000D8018D938D01BFEFEB1AFB0AE4E0EE1677
:10325000F10499F79EEC892E99249A94A92CB92C03
:103260001092B60444244A9419821E8280E3282EC8
:10327000512C332433940E94C30E8823E1F3209110
:103280007704213071F180917804813051F180917F
:103290007904813009F44DC63981311138C08091EB
:1032A00076048F3F21F08370813009F427C6809126
:1032B00074048F3F21F08370813009F425C643E008
:1032C000541629F057FE04C002E0502E01C0512CC4
:1032D0008091B50494E0980F859D901911249E83E8
:1032E00031C08091B50490E0919581959109982F16
:1032F000990F890F82508E83213009F025C640E056
:103300006CE67AE087E894E00E946B0A452C822DF7
:10331000022C000C990B5E81851B910957FD93953A
:10332000029774F481E0481609F476C092E04916D9
:1033300009F46BC0411075C01092440281E066C070
:1033400031E039835E81052F550F110B020D111DE0
:1033500027FC1A9517FF02C00F5F1F4F15950795A1
:10336000202F202E1092B9040093BA043092B80492
:103370001092B7041AEC612E10E0712EE12CF12CA2
:10338000C52C052C000CDD08EC14FD0459F483E079
:103390008093B9048091B504922F589E900D11240A
:1033A0009093BA04F301859194912D830E947B142C
:1033B000AFEFEA1AFA0AB2E06B0E711C2D81E3E05E
:1033C000EE16F10409F71092D0041092D104809106
:1033D000B504402F589E400D1124415024E560E073
:1033E00080EB94E00E943E0C3092D0043092D104E5
:1033F0008091B50463E0680FF02F589EF00D112402
:103400008F2F82500E943C1536CF84E08093490272
:10341000A2E0EA2EF12CC7C0409244024092490239
:10342000F7CF0E94E20DF4CF483E83E058076105D4
:1034300071050CF00DC19CE39093B904A2E0A09338
:10344000BA0480EB94E00E94751381E08093B80485
:103450001092D0041092D1040091280210912902F8
:103460000230110509F45BC10330110509F43EC1B6
:103470000130110509F46CC181E08093D004809380
:10348000D1040230110509F496C10330110509F485
:1034900079C10130110509F4A7C18091440290E07F
:1034A000FC01EE0FFF1FE95EFE4FC080D18010923D
:1034B000D0041092D10422E3289F8001299F100D8F
:1034C000112498012050364F4D2D6C2D80EB94E047
:1034D0000E94A40A83E08093D0048093D1049801D1
:1034E0002456364F4D2D6C2D80EB94E00E94A40A9B
:1034F00081E08093D0041092D1049801285C364F6B
:103500004D2D6C2D80EB94E00E94A40A809149021D
:10351000813009F483C10EE212E0FBE0CF2EA6E079
:10352000DA2EF801A191B1918F01109709F066C3CD
:10353000F2E002341F07A9F74091440250E0809165
:1035400042029091430214E1149F9001159F300DA7
:1035500011242E52354FBA01660F771F460F571FA1
:10356000480F591FFA01EE0FFF1FEB55FE4F418127
:10357000608180EB94E00E94A40A8091490283302C
:1035800009F4FCC380914902823009F410C480918F
:103590007904813061F480914902813009F0BDC421
:1035A00083E080934902E9E02E2EF7E03F2E0E944F
:1035B000C30E8823E1F3809149029FEF980F933067
:1035C00008F071C483E08093D0041092D104D090AD
:1035D000440222E132E0D29E8001D39E100D1124DC
:1035E00098012C503B4F40E060E080EB94E00E945B
:1035F000A40ACC24C394C092D0041092D1049801A0
:1036000020533F4F40E060E080EB94E00E94A40A2A
:1036100040914502509146026091470270914802E4
:10362000D1101AC032E03093B8041092D004C09286
:10363000D1044A3051056105710514F48CE409C0C8
:1036400044365105610571050CF0EECE84E401C0ED
:1036500084E38093B904F2CEC092B804C092D0043F
:103660001092D1044A3051056105710514F485E3C7
:1036700033C0443651056105710514F481E32CC053
:10368000483EB3E05B076105710514F48DE224C088
:103690004031E7E25E076105710514F489E21CC060
:1036A000403AF6E85F07F1E06F07710514F485E230
:1036B00013C0403422E452072FE06207710514F46E
:1036C00081E20AC0403836E9530738E963077105DB
:1036D00014F48DE101C089E18093B90481E0809305
:1036E000BA0480EB94E00E947513B2CE809144023C
:1036F00090E09C0173E0220F331F7A95E1F7285D7B
:10370000364F46E0489FF001499FF00D1124E55FD8
:10371000FE4F4581648180EB94E00E94A40A809171
:10372000440290E09C0163E0220F331F6A95E1F7A9
:10373000285D364F46E0489FF001499FF00D112467
:10374000E55FFE4F4381628180EB94E00E94A40A12
:103750008091440290E09C0153E0220F331F5A9560
:10376000E1F7285D364F46E0489FF001499FF00D94
:103770001124E55FFE4F4181608180EB94E00E945F
:10378000A40A7ACE8091440290E09C0143E0220F8B
:10379000331F4A95E1F7285E364F46E0489FF00117
:1037A000499FF00D1124E55FFE4F4581648180EB58
:1037B00094E00E94A40A8091440290E09C0103E0FE
:1037C000220F331F0A95E1F7285E364F46E0489FE7
:1037D000F001499FF00D1124E55FFE4F43816281A6
:1037E00080EB94E00E94A40A8091440290E09C0146
:1037F00013E0220F331F1A95E1F7285E364F46E09B
:10380000489FF001499FF00D1124E55FFE4F418173
:10381000608180EB94E00E94A40A3FCE8091730403
:10382000813061F48091420290914302181619068A
:103830002CF4019790934302809342028091770485
:10384000813061F48091420290914302181619066A
:103850002CF4019790934302809342028091750467
:10386000813061F48091420290914302823091054F
:103870002CF4019690934302809342028091780445
:10388000813061F48091420290914302823091052F
:103890002CF40196909343028093420280914D0252
:1038A00090914E02019790934E0280934D0218160C
:1038B00019060CF465C10EE212E0680177247394D6
:1038C000D601ED91FC911197309709F47AC0878168
:1038D000882361F01D921C9280912A0290912B0204
:1038E000019790932B0280932A026BC0848195816B
:1038F0001816190624F401979583848305C08281E4
:103900009381019693838283828193818430910590
:1039100031F08A30910519F08031910589F52681C1
:103920002223B1F0168240914502509146026091E7
:103930004702709148024F5F5F4F6F4F7F4F409338
:10394000450250934602609347027093480218C0A4
:10395000778240E064E67AE087E894E00E946B0AB0
:1039600080912802909129020197909329028093D7
:103970002802181619062CF1B2E0B093490221C0B2
:103980004497FCF0F6011182108280912A029091F6
:103990002B02019790932B0280932A02809145027B
:1039A00090914602A0914702B09148020A96A11D4B
:1039B000B11D8093450290934602A0934702B093B5
:1039C0004802F2E0CF0ED11C22E4C21622E0D20659
:1039D00009F076CF87E894E00E949F0A80912C023C
:1039E00090912D02181619062CF4019790932D0230
:1039F00080932C02609145027091460280914702AB
:103A0000909148026F3E32E07307810591055CF4A6
:103A1000A50194010E9456212F5E3F4F30934E0224
:103A200020934D0204C0F0924E02E0924D0280912C
:103A30002C0290912D02181619060CF4A1C0809149
:103A40002A0290912B02181619062CF469E070E0F6
:103A500080E090E004C061E070E080E090E00E94CF
:103A6000DA0770934C0260934B0280914B02909165
:103A70004C02892B09F084C080E090E0D8012D91A0
:103A80003D918D01232B09F080C04091450250915A
:103A9000460260914702709148028C01000F111F8D
:103AA0004D32B1E05B0761057105CCF464E070E074
:103AB00080E090E00E94DA072B013C0188E090E072
:103AC0000E94B71FFC0111821082138212822FEF15
:103AD000421A520A620A720A558244823DC049352E
:103AE0005240610571052CF462E070E080E090E0E6
:103AF00004C063E070E080E090E00E94DA072B01F0
:103B00003C0164E070E080E090E00E94DA079B01F5
:103B1000AC012F5F3F4F4F4F5F4F29833A834B8359
:103B20005C8388E090E00E94B71FFC0151824082D4
:103B30004114510419F4138212820AC031E0431671
:103B4000510421F042E04416510411F453824282A0
:103B500089819A819583848316821782D801A25D18
:103B6000BD4FED93FC9380912A0290912B02019618
:103B700090932B0280932A02F0922D02E0922C0265
:103B80000EE212E0DD24D39416C001968A3091052E
:103B900009F074CFF5CF828193818330910599F438
:103BA0008091420290914302892BF9F0B2E00234F5
:103BB0001B0709F4B0CCD801ED91FD918D018681F0
:103BC0008111F4CFE8CF8930910539F48091420218
:103BD00090914302019751F708C00F9739F78091F0
:103BE000420290914302029709F7D68240E06CE6C8
:103BF0007AE087E894E00E946B0AD8CF17968C9100
:103C00001797209144028823E1F012968D919C91A0
:103C10001397D29EF0011124E756FE4F8B30910589
:103C20001CF06481458107C005971CF062814381C7
:103C300002C060814181329E900111242C53354F86
:103C40001EC014968D919C91159718161906E4F4D0
:103C5000E22FF0E0CE9E9001CF9E300D1124225530
:103C6000354FCF01880F991FE80FF91FED56FE4F12
:103C70009C9182814181989F400D1124608180EB4D
:103C800094E00E94A40A54CC12968D919C911397B3
:103C9000FC01EE0FFF1F8E0F9F1FA22FB0E0FCE371
:103CA000F29F800D911D1124FC01E55EFE4F808185
:103CB0006181E2814E2E512C2AE04216510408F017
:103CC00037CCF201EC5CFF4F0C941323CA9E900199
:103CD000CB9E300D11242255354F21C04AE04A9F1A
:103CE00090014B9F300D11242656354F18C05AE0D5
:103CF0005A9F90015B9F300D11242A57354F0FC0FA
:103D00003A9E90013B9E300D11242C53354F07C035
:103D10002A9E90012B9E300D11242C58354F462F92
:103D2000682FADCFCA9EA001CB9E500D11244255E5
:103D3000554F21C09AE09A9FA0019B9F500D1124DE
:103D40004656554F18C0EAE0EA9FA001EB9F500D80
:103D500011244A57554F0FC03A9EA0013B9E500D6B
:103D600011244C53554F07C02A9EA0012B9E500D85
:103D700011244C58554F0E940E16DACB8DE18093DA
:103D8000B9041093BA048DEB91E00E94A21686E06C
:103D90008093B90483E28093BA0484EC91E00E949A
:103DA000A21680917704813009F0ECCBB3C08091EA
:103DB000450290914602A0914702B091480240917D
:103DC0004F02509150026091510270915202481777
:103DD00059076A077B070CF445C01092D004109273
:103DE000D10407E025E244E168E180EB94E00E9421
:103DF000610C11E01093D0041092D10489E18093FA
:103E0000B90485E18093BA0488ED91E00E94A2167E
:103E10001092D0041092D10424E549E260E080EBD6
:103E200094E00E94610C1093D0041092D10410937E
:103E3000B9041AE21093BA0482EE91E00E94A2162D
:103E40008DE28093B9041093BA0440914F025091CF
:103E50005002609151027091520280EB94E00E94F6
:103E6000751395CB80934F0290935002A09351020B
:103E7000B09352020FE412E0C12CD12CD8016D9105
:103E80008D01C6016D830E9440216D81681719F074
:103E9000C6010E944821BFEFCB1ADB0AE4E0CE1630
:103EA000D10461F79ACF843009F071CBF8E1F09337
:103EB000B90488E08093BA048DEE91E00E94A216C6
:103EC0001CE11093B90480E18093BA0488EF91E07B
:103ED0000E94A21622E02093B9041093BA0481E054
:103EE00092E00E94A21682E28093B90484E2809359
:103EF000BA0487E192E00E94A21649CB539487E866
:103F000094E00E949F0AD3C95A9487E894E00E94E3
:103F10009F0AD5C98093490235CB0E94E20D0E94C9
:103F2000560D80E090E0892B09F49AC90E940000A8
:103F300097C98091B50490E0919581959109982F4A
:103F4000990F890F82508E8340E064E67AE087E81B
:103F500094E00E946B0ADBC91092B3041092B20481
:103F600085EB91E09093B1048093B0040895CF93D2
:103F7000DF938230910510F482E090E0E091EB0451
:103F8000F091EC0420E030E0C0E0D0E0309711F197
:103F90004081518148175907C0F04817590761F40B
:103FA00082819381209719F09B838A832BC0909301
:103FB000EC048093EB0426C02115310519F042175B
:103FC000530718F49A01BE01DF01EF010280F3816B
:103FD000E02DDCCF2115310509F1281B390B2430E8
:103FE000310590F412968D919C911397611571058E
:103FF00021F0FB019383828304C09093EC048093AF
:10400000EB04FD01329644C0FD01E20FF31F8193E2
:104010009193225031092D933C933AC02091E904A9
:104020003091EA04232B41F42091030130910401E3
:104030003093EA042093E9042091010130910201B8
:104040002115310541F42DB73EB74091050150913E
:104050000601241B350BE091E904F091EA04E21714
:10406000F307A0F42E1B3F0B2817390778F0AC019B
:104070004E5F5F4F2417350748F04E0F5F1F509378
:10408000EA044093E9048193919302C0E0E0F0E0F8
:10409000CF01DF91CF9108950F931F93CF93DF93BB
:1040A000009709F48CC0FC013297138212820091B0
:1040B000EB041091EC040115110581F4208131818C
:1040C000820F931F2091E9043091EA0428173907E1
:1040D00079F5F093EA04E093E90471C0D80140E077
:1040E00050E0AE17BF0750F412962D913C911397F4
:1040F000AD012115310509F1D901F3CF9D01DA0197
:104100003383228360817181860F971F8217930703
:1041100069F4EC0128813981260F371F2E5F3F4F4C
:10412000318320838A819B8193838283452B29F469
:10413000F093EC04E093EB0442C01396FC93EE93EF
:104140001297ED01499159919E01240F351FE217F5
:10415000F30771F480819181840F951F0296119667
:104160009C938E938281938113969C938E93129746
:10417000E0E0F0E0D80112968D919C9113970097A2
:1041800019F0F8018C01F6CF8D919C9198012E5F6A
:104190003F4F820F931F2091E9043091EA042817C2
:1041A000390769F4309729F41092EC041092EB046B
:1041B00002C0138212821093EA040093E904DF9193
:1041C000CF911F910F9108958F929F92AF92BF92BE
:1041D000CF92DF92EF92FF92CF93DF93EC01688151
:1041E00079818A819B81611571058105910521F491
:1041F00064E279ED8BE597E02DE133EF41E050E0AB
:104200000E94562149015A019B01AC01A7EAB1E481
:104210000E9475216B017C01ACEEB4EFA501940105
:104220000E948321DC01CB018C0D9D1DAE1DBF1DA5
:10423000B7FF03C00197A109B04888839983AA8377
:10424000BB83BC01CD019F77DF91CF91FF90EF90B1
:10425000DF90CF90BF90AF909F908F9008950E9475
:10426000E420089587E091E00E94E420089560939F
:104270000701709308018093090190930A01089542
:10428000F999FECF92BD81BDF89A992780B508951E
:10429000262FF999FECF1FBA92BD81BD20BD0FB662
:1042A000F894FA9AF99A0FBE01960895052E97FB95
:1042B0001EF400940E946D2157FD07D00E948821B2
:1042C00007FC03D04EF40C946D2150954095309529
:1042D00021953F4F4F4F5F4F089590958095709572
:1042E00061957F4F8F4F9F4F08950E94AA21A59FF0
:1042F000900DB49F900DA49F800D911D11240895E1
:10430000B7FF0C9475210E947521821B930B0895B1
:10431000A1E21A2EAA1BBB1BFD010DC0AA1FBB1FC9
:10432000EE1FFF1FA217B307E407F50720F0A21B3B
:10433000B30BE40BF50B661F771F881F991F1A94A8
:1043400069F760957095809590959B01AC01BD01D2
:10435000CF010895A29FB001B39FC001A39F700D2C
:10436000811D1124911DB29F700D811D1124911D7D
:1043700008950E942D2288F09F5798F0B92F992711
:10438000B751B0F0E1F0660F771F881F991F1AF040
:10439000BA95C9F714C0B13091F00E944722B1E03C
:1043A00008950C944722672F782F8827B85F39F03B
:1043B000B93FCCF3869577956795B395D9F73EF4D9
:1043C00090958095709561957F4F8F4F9F4F089581
:1043D000E89409C097FB3EF490958095709561959F
:1043E0007F4F8F4F9F4F9923A9F0F92F96E9BB2755
:1043F0009395F695879577956795B795F111F8CFD1
:10440000FAF4BB0F11F460FF1BC06F5F7F4F8F4F3B
:104410009F4F16C0882311F096E911C0772321F031
:104420009EE8872F762F05C0662371F096E8862FC9
:1044300070E060E02AF09A95660F771F881FDAF720
:10444000880F9695879597F9089557FD9058440FD2
:10445000551F59F05F3F71F04795880F97FB991FE3
:1044600061F09F3F79F087950895121613061406A0
:10447000551FF2CF4695F1DF08C01616170618062D
:10448000991FF1CF86957105610508940895E89408
:10449000BB2766277727CB0197F908950E946122F1
:1044A0000C94D2220E94C42238F00E94CB2220F029
:1044B000952311F00C94BB220C94C12211240C946E
:1044C00048220E94252270F3959FC1F3950F50E07A
:1044D000551F629FF001729FBB27F00DB11D639FB6
:1044E000AA27F00DB11DAA1F649F6627B00DA11D5C
:1044F000661F829F2227B00DA11D621F739FB00D02
:10450000A11D621F839FA00D611D221F749F332771
:10451000A00D611D231F849F600D211D822F762F0A
:104520006A2F11249F5750409AF0F1F088234AF0E7
:10453000EE0FFF1FBB1F661F771F881F9150504053
:10454000A9F79E3F510580F00C94BB220C944822A1
:104550005F3FE4F3983ED4F3869577956795B795DA
:10456000F795E7959F5FC1F7FE2B880F911D9695F4
:10457000879597F9089597F99F6780E870E060E064
:1045800008959FEF80EC089500240A9416161706EC
:1045900018060906089500240A9412161306140634
:1045A00005060895092E0394000C11F4882352F097
:1045B000BB0F40F4BF2B11F460FF04C06F5F7F4F4F
:1045C0008F4F9F4F0895DB018F939F930E9475211A
:1045D000BF91AF91A29F800D911DA39F900DB29F9F
:1045E000900D11240895991B79E004C0991F961726
:1045F00008F0961B881F7A95C9F78095089597FB58
:10460000072E16F4009407D077FD09D00E941923D5
:1046100007FC05D03EF4909581959F4F08957095C5
:1046200061957F4F0895EE0FFF1F0590F491E02DE7
:104630000994AA1BBB1B51E107C0AA1FBB1FA617E9
:10464000B70710F0A61BB70B881F991F5A95A9F73B
:1046500080959095BC01CD01089581E090E0F8949B
:084660000C943223F894FFCF03
:10466800010000ED04800001000000421148104ED6
:104678000F3C0043004A00421E431C0808010A136D
:1046880002081D060D25040E1A07110E061805024C
:104698001B0F06201A021E2509231C062813022DAB
:1046A8000C01301406321D07372504391D013E1947
:1046B80002431801481B040D06000F0F00111800D3
:1046C800131E04151501170A011C0601220B0024EC
:1046D8001400251E042815012A0E012E0B01330E85
:1046E80000361700371E043B150140100145130022
:1046F80047190405040B00000C0B29202935291043
:104708002B232B352B07251C2531250E2021203363
:1047180020000000008A0CA907D507D4075041558E
:10472800534544005072657373204120746F2063B1
:104738006F6E74696E75650047414D45204F56454B
:1047480052004869676873636F72653A004465761A
:10475800656C6F7065723A004C414442536F6674E1
:1047680000417765736F6D65206E657720677261AC
:1047780070686963733A00657269636F000D0A00B7
:084788004C4F41444552000072
:00000001FF
